{
  "contractName": "TicTacToe",
  "abi": [
    {
      "inputs": [],
      "payable": true,
      "stateMutability": "payable",
      "type": "constructor"
    },
    {
      "anonymous": false,
      "inputs": [
        {
          "indexed": false,
          "name": "",
          "type": "uint256"
        },
        {
          "indexed": false,
          "name": "",
          "type": "address"
        }
      ],
      "name": "GameComplete",
      "type": "event"
    },
    {
      "anonymous": false,
      "inputs": [
        {
          "indexed": false,
          "name": "",
          "type": "uint256"
        },
        {
          "indexed": false,
          "name": "",
          "type": "address"
        }
      ],
      "name": "NextTurn",
      "type": "event"
    },
    {
      "constant": false,
      "inputs": [
        {
          "name": "p1",
          "type": "address"
        },
        {
          "name": "p2",
          "type": "address"
        }
      ],
      "name": "makeGame",
      "outputs": [
        {
          "name": "",
          "type": "uint256"
        }
      ],
      "payable": false,
      "stateMutability": "nonpayable",
      "type": "function"
    },
    {
      "constant": true,
      "inputs": [
        {
          "name": "index",
          "type": "uint256"
        }
      ],
      "name": "getBoard",
      "outputs": [
        {
          "name": "",
          "type": "address[]"
        }
      ],
      "payable": false,
      "stateMutability": "view",
      "type": "function"
    },
    {
      "constant": false,
      "inputs": [
        {
          "name": "gameId",
          "type": "uint256"
        },
        {
          "name": "x",
          "type": "uint256"
        },
        {
          "name": "y",
          "type": "uint256"
        }
      ],
      "name": "makeTurn",
      "outputs": [
        {
          "name": "",
          "type": "string"
        }
      ],
      "payable": true,
      "stateMutability": "payable",
      "type": "function"
    },
    {
      "constant": true,
      "inputs": [
        {
          "name": "b",
          "type": "address[]"
        },
        {
          "name": "p",
          "type": "address"
        }
      ],
      "name": "isWin",
      "outputs": [
        {
          "name": "",
          "type": "bool"
        }
      ],
      "payable": false,
      "stateMutability": "pure",
      "type": "function"
    }
  ],
  "bytecode": "0x60606040526115ba806100136000396000f300606060405260043610610062576000357c0100000000000000000000000000000000000000000000000000000000900463ffffffff168063285cfab01461006757806345e09e54146100d35780638a6dd1c81461014b578063b2029efa146101dc575b600080fd5b341561007257600080fd5b6100bd600480803573ffffffffffffffffffffffffffffffffffffffff1690602001909190803573ffffffffffffffffffffffffffffffffffffffff1690602001909190505061027f565b6040518082815260200191505060405180910390f35b34156100de57600080fd5b6100f460048080359060200190919050506104b5565b6040518080602001828103825283818151815260200191508051906020019060200280838360005b8381101561013757808201518184015260208101905061011c565b505050509050019250505060405180910390f35b341561015657600080fd5b6101c260048080359060200190820180359060200190808060200260200160405190810160405280939291908181526020018383602002808284378201915050505050509190803573ffffffffffffffffffffffffffffffffffffffff1690602001909190505061057d565b604051808215151515815260200191505060405180910390f35b6102046004808035906020019091908035906020019091908035906020019091905050610ce0565b6040518080602001828103825283818151815260200191508051906020019080838360005b83811015610244578082015181840152602081019050610229565b50505050905090810190601f1680156102715780820380516001836020036101000a031916815260200191505b509250505060405180910390f35b6000808373ffffffffffffffffffffffffffffffffffffffff16141580156102be575060008273ffffffffffffffffffffffffffffffffffffffff1614155b15156102c957600080fd5b600080548060010182816102dd9190611361565b9160005260206000209060060201600060c06040519081016040528060096040518059106103085750595b908082528060200260200182016040525081526020018773ffffffffffffffffffffffffffffffffffffffff1681526020018673ffffffffffffffffffffffffffffffffffffffff1681526020018773ffffffffffffffffffffffffffffffffffffffff1681526020016000815260200160001515815250909190915060008201518160000190805190602001906103a1929190611393565b5060208201518160010160006101000a81548173ffffffffffffffffffffffffffffffffffffffff021916908373ffffffffffffffffffffffffffffffffffffffff16021790555060408201518160020160006101000a81548173ffffffffffffffffffffffffffffffffffffffff021916908373ffffffffffffffffffffffffffffffffffffffff16021790555060608201518160030160006101000a81548173ffffffffffffffffffffffffffffffffffffffff021916908373ffffffffffffffffffffffffffffffffffffffff1602179055506080820151816004015560a08201518160050160006101000a81548160ff021916908315150217905550505050600160008054905003905092915050565b6104bd61141d565b81600080549050101515156104d157600080fd5b6000828154811015156104e057fe5b906000526020600020906006020160000180548060200260200160405190810160405280929190818152602001828054801561057157602002820191906000526020600020905b8160009054906101000a900473ffffffffffffffffffffffffffffffffffffffff1673ffffffffffffffffffffffffffffffffffffffff1681526020019060010190808311610527575b50505050509050919050565b60008173ffffffffffffffffffffffffffffffffffffffff168360008151811015156105a557fe5b9060200190602002015173ffffffffffffffffffffffffffffffffffffffff1614801561061557508173ffffffffffffffffffffffffffffffffffffffff168360018151811015156105f357fe5b9060200190602002015173ffffffffffffffffffffffffffffffffffffffff16145b801561066457508173ffffffffffffffffffffffffffffffffffffffff1683600281518110151561064257fe5b9060200190602002015173ffffffffffffffffffffffffffffffffffffffff16145b8061075057508173ffffffffffffffffffffffffffffffffffffffff1683600381518110151561069057fe5b9060200190602002015173ffffffffffffffffffffffffffffffffffffffff1614801561070057508173ffffffffffffffffffffffffffffffffffffffff168360048151811015156106de57fe5b9060200190602002015173ffffffffffffffffffffffffffffffffffffffff16145b801561074f57508173ffffffffffffffffffffffffffffffffffffffff1683600581518110151561072d57fe5b9060200190602002015173ffffffffffffffffffffffffffffffffffffffff16145b5b8061083c57508173ffffffffffffffffffffffffffffffffffffffff1683600681518110151561077c57fe5b9060200190602002015173ffffffffffffffffffffffffffffffffffffffff161480156107ec57508173ffffffffffffffffffffffffffffffffffffffff168360078151811015156107ca57fe5b9060200190602002015173ffffffffffffffffffffffffffffffffffffffff16145b801561083b57508173ffffffffffffffffffffffffffffffffffffffff1683600881518110151561081957fe5b9060200190602002015173ffffffffffffffffffffffffffffffffffffffff16145b5b8061092857508173ffffffffffffffffffffffffffffffffffffffff1683600081518110151561086857fe5b9060200190602002015173ffffffffffffffffffffffffffffffffffffffff161480156108d857508173ffffffffffffffffffffffffffffffffffffffff168360038151811015156108b657fe5b9060200190602002015173ffffffffffffffffffffffffffffffffffffffff16145b801561092757508173ffffffffffffffffffffffffffffffffffffffff1683600681518110151561090557fe5b9060200190602002015173ffffffffffffffffffffffffffffffffffffffff16145b5b80610a1457508173ffffffffffffffffffffffffffffffffffffffff1683600181518110151561095457fe5b9060200190602002015173ffffffffffffffffffffffffffffffffffffffff161480156109c457508173ffffffffffffffffffffffffffffffffffffffff168360048151811015156109a257fe5b9060200190602002015173ffffffffffffffffffffffffffffffffffffffff16145b8015610a1357508173ffffffffffffffffffffffffffffffffffffffff168360078151811015156109f157fe5b9060200190602002015173ffffffffffffffffffffffffffffffffffffffff16145b5b80610b0057508173ffffffffffffffffffffffffffffffffffffffff16836002815181101515610a4057fe5b9060200190602002015173ffffffffffffffffffffffffffffffffffffffff16148015610ab057508173ffffffffffffffffffffffffffffffffffffffff16836005815181101515610a8e57fe5b9060200190602002015173ffffffffffffffffffffffffffffffffffffffff16145b8015610aff57508173ffffffffffffffffffffffffffffffffffffffff16836008815181101515610add57fe5b9060200190602002015173ffffffffffffffffffffffffffffffffffffffff16145b5b80610bec57508173ffffffffffffffffffffffffffffffffffffffff16836000815181101515610b2c57fe5b9060200190602002015173ffffffffffffffffffffffffffffffffffffffff16148015610b9c57508173ffffffffffffffffffffffffffffffffffffffff16836004815181101515610b7a57fe5b9060200190602002015173ffffffffffffffffffffffffffffffffffffffff16145b8015610beb57508173ffffffffffffffffffffffffffffffffffffffff16836008815181101515610bc957fe5b9060200190602002015173ffffffffffffffffffffffffffffffffffffffff16145b5b80610cd857508173ffffffffffffffffffffffffffffffffffffffff16836006815181101515610c1857fe5b9060200190602002015173ffffffffffffffffffffffffffffffffffffffff16148015610c8857508173ffffffffffffffffffffffffffffffffffffffff16836004815181101515610c6657fe5b9060200190602002015173ffffffffffffffffffffffffffffffffffffffff16145b8015610cd757508173ffffffffffffffffffffffffffffffffffffffff16836002815181101515610cb557fe5b9060200190602002015173ffffffffffffffffffffffffffffffffffffffff16145b5b905092915050565b610ce8611431565b600080600086815481101515610cfa57fe5b906000526020600020906006020191503373ffffffffffffffffffffffffffffffffffffffff168260030160009054906101000a900473ffffffffffffffffffffffffffffffffffffffff1673ffffffffffffffffffffffffffffffffffffffff16141515610d6857600080fd5b600082600001856003028701815481101515610d8057fe5b906000526020600020900160009054906101000a900473ffffffffffffffffffffffffffffffffffffffff1673ffffffffffffffffffffffffffffffffffffffff16141515610dce57600080fd5b600015158260050160009054906101000a900460ff161515141515610df257600080fd5b8160010160009054906101000a900473ffffffffffffffffffffffffffffffffffffffff1673ffffffffffffffffffffffffffffffffffffffff163373ffffffffffffffffffffffffffffffffffffffff1614610e73578160010160009054906101000a900473ffffffffffffffffffffffffffffffffffffffff16610e99565b8160020160009054906101000a900473ffffffffffffffffffffffffffffffffffffffff165b90503382600001856003028701815481101515610eb257fe5b906000526020600020900160006101000a81548173ffffffffffffffffffffffffffffffffffffffff021916908373ffffffffffffffffffffffffffffffffffffffff160217905550808260030160006101000a81548173ffffffffffffffffffffffffffffffffffffffff021916908373ffffffffffffffffffffffffffffffffffffffff160217905550610fd082600001805480602002602001604051908101604052809291908181526020018280548015610fc557602002820191906000526020600020905b8160009054906101000a900473ffffffffffffffffffffffffffffffffffffffff1673ffffffffffffffffffffffffffffffffffffffff1681526020019060010190808311610f7b575b50505050503361057d565b1561109a577fc5810928e44d3715813e1c45471a82cc8c78a1fb8088e58d6dc7eff461c1dceb8633604051808381526020018273ffffffffffffffffffffffffffffffffffffffff1673ffffffffffffffffffffffffffffffffffffffff1681526020019250505060405180910390a160018260050160006101000a81548160ff0219169083151502179055506040805190810160405280600381526020017f57494e00000000000000000000000000000000000000000000000000000000008152509250611358565b61112c8260000180548060200260200160405190810160405280929190818152602001828054801561112157602002820191906000526020600020905b8160009054906101000a900473ffffffffffffffffffffffffffffffffffffffff1673ffffffffffffffffffffffffffffffffffffffff16815260200190600101908083116110d7575b50505050508261057d565b156111f6577fc5810928e44d3715813e1c45471a82cc8c78a1fb8088e58d6dc7eff461c1dceb8682604051808381526020018273ffffffffffffffffffffffffffffffffffffffff1673ffffffffffffffffffffffffffffffffffffffff1681526020019250505060405180910390a160018260050160006101000a81548160ff0219169083151502179055506040805190810160405280600481526020017f4c4f5345000000000000000000000000000000000000000000000000000000008152509250611358565b600982600401541015156112b4577fc5810928e44d3715813e1c45471a82cc8c78a1fb8088e58d6dc7eff461c1dceb866000604051808381526020018273ffffffffffffffffffffffffffffffffffffffff1681526020019250505060405180910390a160018260050160006101000a81548160ff0219169083151502179055506040805190810160405280600481526020017f44524157000000000000000000000000000000000000000000000000000000008152509250611358565b7f13b8cadddb925ccf4ea2242907b43794abd0b0916173e7290540ae12d0540b9a8682604051808381526020018273ffffffffffffffffffffffffffffffffffffffff1673ffffffffffffffffffffffffffffffffffffffff1681526020019250505060405180910390a16040805190810160405280600c81526020017f4b4545505f504c4159494e47000000000000000000000000000000000000000081525092505b50509392505050565b81548183558181151161138e5760060281600602836000526020600020918201910161138d9190611445565b5b505050565b82805482825590600052602060002090810192821561140c579160200282015b8281111561140b5782518260006101000a81548173ffffffffffffffffffffffffffffffffffffffff021916908373ffffffffffffffffffffffffffffffffffffffff160217905550916020019190600101906113b3565b5b5090506114199190611505565b5090565b602060405190810160405280600081525090565b602060405190810160405280600081525090565b61150291905b808211156114fe57600080820160006114649190611548565b6001820160006101000a81549073ffffffffffffffffffffffffffffffffffffffff02191690556002820160006101000a81549073ffffffffffffffffffffffffffffffffffffffff02191690556003820160006101000a81549073ffffffffffffffffffffffffffffffffffffffff021916905560048201600090556005820160006101000a81549060ff02191690555060060161144b565b5090565b90565b61154591905b8082111561154157600081816101000a81549073ffffffffffffffffffffffffffffffffffffffff02191690555060010161150b565b5090565b90565b50805460008255906000526020600020908101906115669190611569565b50565b61158b91905b8082111561158757600081600090555060010161156f565b5090565b905600a165627a7a723058205975dafff4f6abe2a0258c347cc46d84f6404602951857ba082877a1d82348d30029",
  "source": "pragma solidity ^0.4.18;\n\ncontract TicTacToe {\n    struct Game {\n        address[] board;\n        address x;\n        address o;\n        address currentPlayer;\n        uint totalTurns;\n        bool isComplete;\n    }\n\n    Game[] games;\n\n    function TicTacToe() public payable {\n    }\n\n    function makeGame(address p1, address p2) public returns (uint) {\n        require((p1 != 0) && (p2 != 0));\n        games.push(Game(new address[](9), p1, p2, p1, 0, false));\n        return games.length - 1;\n//        return 999;\n    }\n\n    function getBoard(uint index) public view returns (address[]) {\n        require(games.length >= index);\n        return games[index].board;\n    }\n\n    // gameId, player\n    event GameComplete(uint, address);\n\n    // gameId, nextPlayer\n    event NextTurn(uint, address);\n\n    function makeTurn(uint gameId, uint x, uint y) public payable returns (string) {\n        Game storage game = games[gameId];\n        require(game.currentPlayer == msg.sender);\n        require(game.board[x + 3*y] == 0); // No Move Yet\n        require(game.isComplete == false);\n\n        address otherPlayer = msg.sender == game.x ? game.o : game.x;\n\n        game.board[x + 3*y] = msg.sender;\n        game.currentPlayer = otherPlayer;\n\n        if (isWin(game.board, msg.sender)) {\n            GameComplete(gameId, msg.sender);\n            game.isComplete = true;\n            return 'WIN';\n        } else if (isWin(game.board, otherPlayer)) {\n            GameComplete(gameId, otherPlayer);\n            game.isComplete = true;\n            return 'LOSE';\n        } else if (game.totalTurns >= 9) {\n            GameComplete(gameId, 0x0);\n            game.isComplete = true;\n            return 'DRAW';\n        } else {\n            NextTurn(gameId, otherPlayer);\n            return 'KEEP_PLAYING';\n        }\n    }\n\n    function isWin(address[] b, address p) public pure returns (bool) {\n        return (\n        b[0] == p && b[1] == p && b[2] == p ||\n        b[3] == p && b[4] == p && b[5] == p ||\n        b[6] == p && b[7] == p && b[8] == p ||\n\n        b[0] == p && b[3] == p && b[6] == p ||\n        b[1] == p && b[4] == p && b[7] == p ||\n        b[2] == p && b[5] == p && b[8] == p ||\n\n        b[0] == p && b[4] == p && b[8] == p ||\n        b[6] == p && b[4] == p && b[2] == p);\n    }\n}\n",
  "sourcePath": "/Users/ido/projects/Ethereum/contracts/tietactoe.sol",
  "compiler": {
    "name": "solc",
    "version": "0.4.19+commit.c4cbbb05.Emscripten.clang"
  },
  "schemaVersion": "1.0.1",
  "updatedAt": "2018-02-10T23:34:48.524Z"
}